:020000041800E2
:200000003C3CA5A5C3C35A5A02000000BFFFFFFFFFFFFFFFFFFFFFFFFFFFFFFF0003001817
:160020008C0F0000004003180000071800C00718FFFFFFFFFFFFDC
:2003000000C00000710E0000C50A0000C50A00000000000000000000000000000000000000
:200320000000000000000000000000000000000000000000000000000000000000000000BD
:2003400000000000000000000000000000000000000000000000000000000000000000009D
:2003600000000000000000000000000000000000000000000000000000000000000000007D
:2003800000000000000000000000000000000000000000000000000000000000000000005D
:2003A00000000000000000000000000000000000000000000000000000000000000000003D
:2003C000EFF3108072B67047002800D162B6704772B670478021044BDA680A4200D170471F
:2003E000DA680A43DA60F7E70014024007B5042201A900F01EFC01980EBD0000014B9866BC
:200400007047C046001402408000016470470000064B07495A6B1140802252010A435A6377
:200420008022D96B52030A43DA63704700140240FF8FFFFF8023034A5B00516B0B43536353
:200440007047C046001402400349044A4B681A40034B13434B6070470010024008FFFF7F05
:20046000020000800349044A4B681A40034B13434B6070470010024008FFFF7F04000080F2
:2004800013B501AC200000F087FC0120A37898400138FF3816BD0000002210B5034BDA6688
:2004A000FFF7EEFF00F062FC10BDC0460014024007B5FFF7E5FF042201A900F0BAFB01983E
:2004C0000EBD10B5FFF7DCFF103010BD10B586B00400FFF7F6FF102202A900F0AAFB049BB3
:2004E00002990193DB43039A002021606260994205D10598C043801A43425841C0B206B07E
:2005000010BD10B52420FFF771FF10BD10B52820FFF76CFF10BD01380028FCD170470000B2
:200520008022064B52059969054811439961996901409961596A0A435A62704700100240C2
:20054000FFFFFFEF022070470020704700487047020204000122084B1969114319611969B0
:2005600091431961D9690A43DA618022596A92050A435A627047C04600100240030000202C
:20058000022B03D898029023DB05C01870470000E0230F4ADB02D16910B50B43D36190232A
:2005A0000020F021DB05186158619861D861094B89011A690A401A61A02292015861064943
:2005C0009861DA61FFF720FF0122044B1A6010BD00100240000400487103000000E100E046
:2005E00013B56B460400D8710009FFF7C7FF01232407240FA34082691343836113BD13B54E
:200600006B460400D8710009FFF7B8FF01231A002407240FA24041680A4203D01034A340B9
:20062000836013BD8260FCE71B2818D004D8002808D007280FD070471F28FCD10A4B0122EA
:20064000996C02E01022084B996C91439964996C0A439A64EFE7044B2022996CF5E7024B73
:200660004022996CF1E7C0460014024070470000F7B5002401271C4E33699BB20193019BAD
:2006800023413B4211D0356BA300DD40FF232D011B011D403B00A3402543EDB2280073614E
:2006A000FFF7C2FF2800FFF7E1FF0134082CE6D10127019B23413B4212D0756BA300203B00
:2006C000DD40FF232D011B011D403B00A3402543EDB228007361FFF7A7FF2800FFF7C6FF94
:2006E0000134102CE5D1F7BD0004014000DF704701DF704702DF704706DF704707DF7047DC
:2007000010B5EFF31084002C02D000F063FA10BDFFF7ECFFFBE710B5EFF31083002B02D08C
:2007200000F014FB10BDFFF7E3FFFBE710B5EFF31083002B02D000F01FFB10BDFFF7DAFF56
:20074000FBE710B5EFF31083002B02D000F01CFB10BDFFF7D3FFFBE710B5EFF31084002C9B
:2007600002D000F08DFA10BDFFF7C6FFFBE7000010B50400FFF7EEFE20206401024B0440E5
:200780001F3804431C6010BD00740140024A1368002BFCDA7047C04600000240002310B50E
:2007A0009A4200D110BDCC5CC4540133F8E7000073B50E00017A9B024C06E40F050023436E
:2007C0000479E020240623430C07E40F64002343CC06E40F640223438C07240C23434C072F
:2007E000E40F8906E400C90F234389000B43711EC002090401400B433100481E814109012E
:200800000B430B490B606B680A491B0A0B60130101221A43084B1A60FFF7B8FF074B320083
:200820001B68286801A90193FFF7B8FF73BDC046900002409800024094000240A000024020
:2008400073B505000C0011269302134A1A43134B1A60082C12D8002C0FD00122104B1A60E0
:20086000FFF794FF0F4B22001B68694600930E4B28001B680193FFF791FF73BD084B083CC9
:200880001E60FFF783FF074BA4B21B682B60064B1B686B600835DCE7100007009000024024
:2008A00094000240A0000240A400024037B51500027A9B025406E40F2343047924062343C0
:2008C0001407E40F64002343D406E40F640223439407240C23435407E40FE4002343E024DA
:2008E0009206D20F920013434A1EE4031205224013430A00541EA241520113430A4A1360AA
:2009000043680A4A1B0A13600A00016801A8FFF745FF019A064B1A602A010125054B15438B
:200920001D60FFF733FF37BD9000024098000240A800024094000240F8B505000C00114B98
:20094000114F960233433B60042C10D8002C0DD02022013C2405264316433E602A680B4B7D
:200960001A6001220A4B1A60FFF710FFF8BD04CD064B043C1A601122054BA4B21A60FFF72C
:2009800005FFE1E72000300090000240A800024094000240F7B50192868905000F00042E15
:2009A0001AD8F4B2002E23D00026FFF709FDAA7B124B00909A6228003200EB7B2100B8476E
:2009C000A9892868091BEA7B019B89B2001998470098FFF7F9FCF7BD0268032310001840CE
:2009E0001A4204D00424241A0126E4B2DDE70126034C3C1B63425C41A400D6E7000002402E
:200A0000B104000010B5FFF78BFD00230A4CE362FFF79CFDE060FFF795FD1E2340001840F0
:200A20002061FFF791FDF023C004DB03184081231843206010BDC0460000024010B5827851
:200A400043780A4914078B625307DB0FE40F007824041B0323430343D006C00F000592079C
:200A60000343920913434B6010BDC0460000024010B5024A0249FFF78DFF10BD410500008E
:200A8000B104000010B5024A0249FFF783FF10BD39060000AD0500001FB56B4600916C216C
:200AA00018711B7A68468B43190040230B4369460B7200238A81CB73FFF7E4FF05B000BDEF
:200AC000064B0122190010B5000610439031943308601A60FFF75AFE10BDC046000002409E
:200AE0001FB56B4600916C2118711B7A68468B43190040230B4369460B7200238A81CB7357
:200B0000FFF7B6FF05B000BD10B586B06B4607330293EB237F2402AA03938001AE3B03439A
:200B2000107A2340A043034313720123100093819173D373FFF79CFF06B010BD10B5FFF7B9
:200B400097FF10BD10B5FFF79DFF10BD10B5FFF759FF10BD13B500F02FF900281AD1FFF745
:200B60002FFC202104000120FFF7CEFFEB231F2201A80370CB3B4370837893431A001E23D1
:200B800013438370FFF75AFF012000F09DF82000FFF71AFC13BD10B500F00EF900280CD05B
:200BA000FFF70EFC002104000800FFF7ADFF002000F08AF82000FFF707FC10BD10B5062003
:200BC000FFF77EFF10BD10B5010001220520FFF787FF10BD10B586B002913221022B00D0A0
:200BE000303902AC217101020398023B019068460079084303907C20217AA28181430800B5
:200C000048215A4253410143217203482100E37300F07AF806B010BD4508000010B50100AA
:200C20000322C078FFF738FF10BD10B5FFF720FF10BD7FB5EB23029102A90B710399030219
:200C40000191694608797F211843039002AB1B7A8B4319007D230B4302A90B7280235B0007
:200C60000800CB818A81FFF761FD07B000BD030010B5196842790079FFF732FF10BD0000DC
:200C800010B586B00292482202AC2271039AC90501926A46C90D0003084311790002084371
:200CA0007F210390227AA3818A4311004C2200230A43044821002272E37300F01BF806B075
:200CC00010BDC0463D080000014B58707047C0468C0F0000014B5870197070478C0F0000A1
:200CE00013B56B46DC1D2000FFF76DFF01232078184016BD70B50D000400FFF74CFF28007A
:200D0000A047FFF727FF70BD70B50E000500FFF757FB0400FFF73FFFFFF750FF3000A84787
:200D20000123064D20002B70FFF74EFBFFF7D8FF0028FBD12870FFF70DFF70BD8C0F00001F
:200D400010B50223FFF7DCFC10BD000007B5020C01AB1A70020A9870D970034819005A7083
:200D6000FFF7D2FF07BDC0461D09000010B52021FFF7D1FC10BD000010B501000148FFF721
:200D8000B9FF10BD2B09000010B501000148FFF7B1FF10BD6F09000007B56A46034B009056
:200DA00093806846FFF7CDFC07BDC0469F03000010B5FFF7D1FC10BD014B58787047C04619
:200DC0008C0F0000FEE770B505005024FFF708FC2800013CFFF713FCE4B23320FFF79BFB1C
:200DE000002CF5D170BD1FB5102301206A460021FFF7DEFF6B4618885B88DB439BB298428F
:200E000009D16B46DB886A46DB4392889BB29A4201D105B000BD0020FBE7000010B586B092
:200E200001AC1423102122000120FFF7C1FF210005234A880888D24392B290424FD1013B72
:200E4000DBB20431002BF4D16178294A09070B0F0F21506888432178034353608B08890702
:200E6000090A1B060B432179506B8907890B0B4361784906490F49020B431E49084003431B
:200E80005363916B237A89009B0989089B070B439363D36BA189DB0B4904490CDB030B4343
:200EA000D363637914495A075B065B0F920C1B0213438868114A104003438B600C4B10490A
:200EC0009A6B1140802292050A4307219A635A6C8A43110005220A435A6406B010BD064969
:200EE000064A8B681A4090239B011343E5E7C04600140240FFF13CC000740040FFC0FFFF2B
:200F0000FFFFFFC010B586B001AC1423102122000120FFF74DFF210000234A880888D243C4
:200F200092B2904200D0FEE70233DBB204310A2BF3D16178224A09070B0F0F2150688843D4
:200F40002178034353608B088907090A1B060B432179506B8907890B0B4361784906490F13
:200F600049020B431749084003435363237A916B9B09980780239B05034307200902090A8A
:200F80000B439363D36BA189DB0B4904490CDB030B43D363516C637C814303400B43536413
:200FA000637909495A075B065B0F920C1B0288681343064A104003438B6006B010BDC0467C
:200FC00000140240FFF13CC000740040FFC0FFFF10B586B0182310216A460120FFF7E8FE4A
:200FE000694600234A880888D24392B2904200D0FEE70233DBB204310C2BF3D16B46597869
:20100000324A09070B0F0F215068314C8843034353606B461978506B8B088907090A1B06AD
:201020000B43694609798907890B0B43694649784906490F49020B4326490840034353635C
:201040006B46197A906B8B09890689089B070B43214901400B43802149030B4369469363D4
:20106000D36B8989DB0B4904490CDB030B43D3636B460720516C5B7C814303400B435364BE
:201080006B465B7915495A075B065B0F920C1B0288681343124A024013438B6008232268AC
:2010A000134323606B460F4A9B8A934208D00E4A934209D0082223689343236006B010BDE4
:2010C0001B20FFF780FEF5E71320FAE70014024000100240FFF13CC0FFFFEF00007400403C
:2010E000FFC0FFFF0316000002320000C023194ADB05116A10B50B431362FFF774FE164BF4
:20110000984209D0154B984209D0033BFF3B984208D1FFF783FE10BDFFF7F4FEFBE7FFF7DA
:2011200057FFF8E70E4B0F499A6B1140802292050A4307219A635A6C8A43110005220A43B0
:2011400009495A648B68094A1A4090239B0113438B60E0E7001002400141000002420000B0
:2011600000140240FFFFFFC000740040FFC0FFFFF0B5414D85B0FFF72BF9FFF765F9FFF71F
:2011800071F9A86C0027000AC0B2FFF737F98023A020AA6C1B061343AB640001FFF7BBF95E
:2011A000390038002F64FFF795FDFFF7CFFCFFF7D1FC3800FFF7DCFAFFF7EAF92F49304A50
:2011C000CB691A40A0239B011343CB61FFF78EFFFFF71EF9FFF72EF9A0200001FFF79BF9A8
:2011E000FFF7F8F8FFF78DF9040002A8FFF76EF9B8420AD0FF23039A1340591E8B41120A3D
:201200009B189F4214D3FFF747F9ED6EFFF750F91C4B9D4201D0002802D1FFF777F9040007
:20122000236883F3088862B66368984705B0F0BD3B020193E8231B06E6183B02F6180F2381
:201240001F4202D13000FFF791FDE82212069446029B80220193634418003B02C0180A49B0
:201260005200FFF7E6FC80223000074952000137FFF766FDBFB2BDE7001402400004004888
:10128000FFC3FFFF3C3C5A5A8E0F000006252DACD1
:2020000010B5024B00221B68984710BD80B9000010B5024B01221B68984710BD80B9000087
:2020200010B5024B00221B68984710BD80B9000010B5024B01221B68984710BD80B9000067
:20204000F8B50A202FF05AFF114D2E68002E1CD1F8BD3B00A3401E4203D02000C9B200F091
:202060001DFA0134E4B20B4B1B78023B9C4202DA29890029EDD12B68002BE9D02B89002BAF
:20208000E6D00A202FF018FFE2E700240127EAE784B90000B5BE000010B5040001280ED0C4
:2020A000022809D0002803D10A2008492FF0E8FE200000F03DF910BD0A202FF01FFF0C22F9
:2020C0000021034831F070FEF2E7C0464120001884B9000010B500F031F810BD024B988060
:2020E000D98019817047C04684B90000014B18897047C04684B9000070B50125094C8540A7
:20210000236800290BD01D4205D12389002B02D00A202FF0D1FE23681D43256070BDAB43AF
:202120002360FBE784B9000010B504000021FFF7E3FF0021200000F089F810BDF8B5184FA8
:2021400086003B6804009B59002B05D00022154B110001201B689847042320021843002183
:202160002FF096FD002138202FF036FB041E08D10C4B020001001B68012098473B689C517C
:20218000F8BD002520C030F00BFA2000E560A576103030F005FA0423E5762377EEE7C0468A
:2021A0009CB9000008BF000070B5042400020443200016000D002FF0D9FD002E05D02843C7
:2021C000C1B220002FF064FD70BDA843F8E70000F8B50D00110004221C0006AB1E8800028F
:2021E00007AB1F880243062304482FF0BDF905708780468044702FF0DBF9F8BD040A00004B
:20220000F7B51300104A0D00126881008E580400002E17D0002D15D1316800290DD00F00DD
:2022200005200C3F3A890978009001952000FFF7CFFF38002FF0EEF93560002201212000A9
:20224000FFF7B2FFF7BDC0469CB90000F0B5334F87B0830004933B6882009D58042203020B
:202260001A43040003910592002D27D02C4811002FF0D8F82868002807D0039B002B23D1EE
:20228000462219002000FFF7BBFF0126296900291ED1E868002801D02FF028FB214AAB7EFD
:2022A00011895B1813816E68002E17D13B68049A98582FF01BFB3B68049A9E503F210598FF
:2022C0002FF0E6FC07B0F0BD0C382FF0A3F9DCE7039A2000724001F011FFD7E7281D30F044
:2022E000BDF9039B0600002B0DD182880E4B9A420DD1039B02890193438A062100932000FA
:202300004623FFF765FF30002FF0F0FACBE7074B210002201B689847F5E7C0469CB90000E1
:20232000140A000084B90000120A000008BF000070B5040001282FD002282BD0002814D1DC
:202340001A491B4B1B4D0B601B4B04201B6804264B602B78023B0B81184B1B884B812FF0A2
:202360003BFC2B78023B9C4200DB70BD20023F21304301342FF08CFCE4B2F2E720000121DE
:20238000FFF764FF0134E4B20A4B1B78023B9C42F4DBEAE70024F7E7064B00211A78084B1D
:2023A000023A1868920031F0FFFCDEE790B90000C42F0018B5BE0000A0B900002C3000185A
:2023C0009CB900000F4B70B51B688200D5580E4B0C001B78023B984205DB00220B4B11007F
:2023E00001201B689847002C05D00022074B110001201B689847A4006359181E00D018785B
:2024000070BDC0469CB90000B5BE000008BF00000D4B70B51B688200D5580C4B0C001B7855
:20242000023B984205DB0022094B110001201B689847002C05D00022054B110001201B6873
:202440009847A400605970BD9CB90000B5BE000008BF00000E4B70B51B6815008200D658BE
:202460000C4B0C001B78023B984205DB00220A4B110001201B689847002C05D00022064BF0
:20248000110001201B689847A400A55170BDC0469CB90000B5BE000008BF0000F0B5AB4BB1
:2024A00082001B688FB0D358070008910493002B00D143E15C68231E02D00B005A1E934128
:2024C000042206933B021A430B92069B002B00D12CE1162308AA9B1800221A8015230125A4
:2024E00008AA9B181D7014F067FA0590002805D1974B020001001B6828009847954A059B04
:20250000944663440993A188934B994235D0934B994200D0A9E0152208ABD218E389200045
:20252000591E8B4113700092162208A952182100099B0E31103000F0EFFD0300051E03D1D6
:20254000228A002A00D095E0002122890191618A380000910621FFF73BFE049B181D30F004
:202560007DF820002FF056F8002D00D17BE0059814F07AFA00230693D4E002213800228A74
:2025800001F0A0FD061E00D1DCE0431CDB7FDB0700D4D5E0438BE5890793A38A0A93002D0B
:2025A00016D11D00079B02359D4200D91D00ADB2B18B002904D1664B0A0001201B68984792
:2025C000B38B013BB383638A0133638200230EE0A81C0799FFF72CFD079B0A9A5B1A551B86
:2025E0009D4200D91D00ADB28BB20029E0D05A1E9341152208A9DBB2521813701622029316
:202600002300521821000E33019500933800099B103100F00DFD051E03D1E289A38A9A4220
:2026200015D1B37B618A228938000191009304212B00FFF7CDFD049B181D30F00FF8200068
:202640002EF0E8FF002E8FD0002373608CE7B58B002D0FD102230136F27F1343F377049B06
:20266000181D2FF0FBFF069504E0394B3A0003201B689847380007F0DDF9082301000B9A74
:2026800037482EF071FF162308AA9B18198805004180002904D12E4B0320A2881B68984702
:2026A000059B38006B6007F0C5F9000B08D0284B38001E6807F0BEF92A4902000320B04771
:2026C00038002E8807F0B6F91523360B360336B2064308AA2E809B181A78234E13033342E2
:2026E00005D0C0211A4B03201B68890198472B8808AA1E4015239B181B7828001B031E43C8
:20270000B604B60C2E8010F065FD184A089913890139013B1381049B049A9B7E01339376F1
:20272000CBB20893089B002B00D0CEE6049B380059684B1E9941C9B2FFF7DEFC0FB0F0BD9D
:2027400033256EE73325237C6CE7C0469CB9000008BF0000004000500D0A0000120A00009D
:2027600006110000FF0F0000FFCFFFFF84B9000010B5024B1B68984710BDC046C4BF000061
:2027800000207047F7B5100016000C001D002FF0EDFA462302002178300A3F2A03D04B1F7D
:2027A0005A1E934142330026E279A77912023A43019600922A00FFF70BFD3000FEBD73B5C2
:2027C00010000E0015002FF0D1FA00243F280AD0F388052B07D13378280AA34205D1311D0E
:2027E00001F00CFC0400200076BD332BFBD0717A312B05D1012200941A3B01F097FBF2E7DB
:202800000029F0D0230022000094F6E7F0B5088889B00005000D059107F0F0F80600FF28F7
:2028200058D04E4B82001B68D558059B59684C4BCB180793002904D14A4B0A0001201B68EF
:202840009847059B02AA5B885382059B1B889B049F0F002D05D1434B2A00290001201B687D
:202860009847012F04D0022F34D1300000F0E4FEEA7E2B7F9A4208D2122302AA9B181A00C7
:20288000300007A900F038FF0227EC68002C21D0A188354B994225D0344B994258D1029702
:2028A00002AB5B8A22000193079B210000932B00300018330E32103100F072FD002802D1F9
:2028C0002B8B002B06D10023EB60207320000C302EF06EFE059B586880B214F027F8002084
:2028E00009B0F0BD2A0002AB18325B8A0192220021000E32029700923000079A103100F029
:20290000CDFB071E02D12B8B002BE3D101213000228A01F0D7FB011E16D0431CDB7FDB0701
:2029200012D5002F0BD1E289A38A9A4204D1876020000C302EF03CFE0023EB60CAE73A0068
:20294000300001F031FCF7E7E8682EF0CFFFF3E7044B320003201B689847BBE79CB9000038
:202960000040005008BF00000E0A0000130A000070B510000D0014002FF0F8F93F2808D026
:20298000240A00212000FFF71DFD01280DD0022801D0002070BD01216A88200001F092FBB8
:2029A00001220100200001F0A9FB452200212000FFF726FCEDE70000F7B5150010000C00CD
:2029C0001F002FF0D3F92D0AEEB23F2838D02378042B0BD043230025A288300000922178F2
:2029E0003A000195FFF7F4FB280022E001213000A28801F067FB002824D04368002BE9D17D
:202A00002189028B91421FD844606380C38AA380838B002B0ED021000C4BAD001B680C39BA
:202A2000E85804302FF0D2FD01213000FFF764FB0120FEBD02230130C27F1343C377F7E7AC
:202A40004623C8E73323C6E73123C4E79CB90000F7B5140010000D001E002FF087F9220A41
:202A60002978D7B23F2813D04323062911D129000D4B92001B680C39D05804302FF0A6FD72
:202A800038000121FFF738FB002301206B80FEBD46230024EA883800009201943200FFF743
:202AA00097FB2000F3E7C0469CB90000F7B50091132B0FD1FFF71AFB0024009B01909D1CC0
:202AC000009B1B78A34207D8019B002B02D10A202FF0F2F90020FEBD288806F08FFF020025
:202AE000FF2814D00C4F86003B689B59002B04D10A4B032029881B689847094B69881A89E0
:202B00008A181A813B689A59937E5B1A93760134A4B20235D4E7C0469CB9000008BF0000B4
:202B200084B90000F0B5100087B00D0004922FF01DF93F2800D179E0049B02211F0A3800E0
:202B40002A8801F0BFFA041E00D16FE0AB783726002B36D0431CDA7F012316001E401A427A
:202B600000D072E02B8905930BF026FD059B984200D26CE02B89162B00D868E06B89059390
:202B80000BF020FD059B984200D262E06989162900D85EE0288908180130FFF739FAEB88AA
:202BA000984258DAAB88002B43D0AA881300403B3F2B52D80121380001F084FA002800D083
:202BC0003E26AB883000E3812B8923826B896382EB88A38201F058FA0100208AE21CE389A8
:202BE000D27F0290608A0190A08A0090380001F023FBAB78002B12D00C23E18B049A1B48AA
:202C00002EF0B2FCA38906704380E3898380A38BC380238B0381638B43812EF0C9FC002EAE
:202C20001DD101230134E27F1343E377002007B0F0BD4023AB8001213800AA8801F042FA71
:202C40000028B2D0AB880133F4E74326B9E73126B7E73226B5E73D26B3E73326B1E7002286
:202C60002100380001F04AFAE0E7C046080A0000190010B5030A04000A2B08D18A4206D048
:202C80000448083B2EF070FC04802EF091FC002010BDC0460F0A0000F0B585B004000D00F5
:202CA00016000293002905D00022244B110001201B6898470820230218432FF057F8337885
:202CC000070003933F2828D029002000FFF7A0FB01231A00864203D02F41DA181F4208D0AA
:202CE000100005B0F0BD039A934218D0029B01330293029B1B78002BF5D1402530002EF0CE
:202D000090FC002605230200009320002B0003990196FFF75DFA3200E2E74325EEE732000F
:202D2000012629002000FFF795FB3100A94032002000C9B2FFF738FAEDE7C04608BF0000ED
:202D4000F0B502230D00002185B0170A02AA1371517138002A0003ABFFF79EFF0600012861
:202D600026D101006A88380001F0ACF9041E25D0431C0193DB7F334203D1831CDB7F002BCA
:202D80001CD0FFF7F5FCC0B2002814D06870E38AE2893800697801F071FA0122631CDB7FC1
:202DA000134205D0A6219343019A0234E177D377300005B0F0BD01236B70E8E73322002103
:202DC0003800FFF71DFAF3E7F7B503230C0069460B7100216B46170A59712200380001AB08
:202DE000FFF75AFF0600012829D101006288380001F068F94722051E1DD0431CDB7F33423F
:202E000019D0A188073A002915D0808A0E4B1B1A994210DCFFF7ACFCC0B2002811D0607009
:202E2000A388EA893800617801F059FAA288AB8A9B180022AB8200213800FFF7E1F93000E5
:202E4000FEBD6670ECE7C046FFFF0000F0B58BB0079301230C0004A90B75002104AB597595
:202E6000130A05936B461F7D2200380009ABFFF713FF0690012865D16388002B00D17AE004
:202E800025890BF099FB854200D976E023893126162B00D866E065890BF094FB854200D985
:202EA0006DE06189162900D869E0208908180130FFF7AEF8E388984200DB62E0A388002B2D
:202EC00043D0A2881300403B3F2B4AD80121380001F0F8F8011E44D160880BF073FC86B2A2
:202EE000002E3FD1012124202EF076FC05006388059A8381A388C682C38123899200038291
:202F0000638929004382E38806848382079B4660C3831D4B86601B68D05810302FF08CFB70
:202F2000FFF726FCC0B2002822D06070288AEB89AA890290688A61780190A88A00903800DC
:202F400001F04CF906980BB0F0BD4023A38001213800A28801F0B6F80028B2D0A388013383
:202F6000F4E7332600213800F2B2FFF749F9E9E701236370DAE73A26F4E73126F2E732269D
:202F8000F0E73D26EEE7C0469CB9000070B50D00042114001A0004AB1B8800024A3301432D
:202FA0009BB204482EF0E0FA0623C58004720370083070BD120A000010B508382EF0F8FA93
:202FC00010BD0000FFFF0000712C0018120A0000512A00180D0A0000B9290018100A000097
:202FE00085270018050A00004D2E0018070A0000252B00180B0A0000C92D0018090A0000BC
:20300000412D0018140A00007129001803110000AD2A0018061100000D280018130A0000D6
:20302000BF270018040A0000812700180D00000070B5180004AB20CB1C8806AB1E780023D2
:203040009E420BD1230A047043700B8883701B0AC3702B88002B16D0042304300E4E1C19D2
:20306000B688B44200D93400A4B21480E41A2B88A4B206332200C91830F07AFE2B88002077
:20308000E4182C8070BD8B88023C03711B0A4371A4B206230630E1E784B90000F7B51F0038
:2030A0000AAB1B78089D099C00910192012B1DD0184B2A881B688000C1580423002A03D1EB
:2030C0002388023B23800623CE7E2888009AF61AF6B21D3306301018C918320030F048FEC7
:2030E0002B88F3182B8023889E1B268023883420BB420ED32888009B06303A0018180199FB
:2031000030F036FE00202B88FB182B802388DF1B2780FEBD9CB90000F0B587B002930023DA
:2031200013800C9B04001B78160004910093002B00D00BE1038043880279052B0DD0062B92
:203140002ED0042B00D01DE1914B522A00D11DE11F21D22A03D1152105E017218D4B8A4246
:2031600000D311E111008900CB580193002B00D10AE1029B651D1A715F1D238801332380AA
:2031800033880133338000230393019B1878009B002800D1ABE0002B05D0009807B0F0BD8D
:2031A0000F217D4BDBE7019B0133059352280FD8402811D9413811280ED830F0ADFD541074
:2031C0000D0D0D0D0D0D0D0D3A2E0D0D0D8B0D4757280FD06C2853D03423009319E02B787E
:2031E00001353B7023880137013323803388013333800EE001226B1C934322889D1C02328D
:2032000022803288023232801B883B701B0A7B700237019B01330193B7E7012301359D4399
:2032200023880235023323803388039702333380EEE729003800102230F09AFD2388103588
:2032400010332380338810371033D1E729003800082230F08DFD23880835083323803388D5
:2032600008370833C4E729003800062230F080FD2388063506332380338806370633B7E772
:203280000123019A013552789D432B880235572A1BD15B009BB2414A3188908822889A18D8
:2032A0002280021F521A92B201929A4200D901932900019A380030F05BFD019A3388AD1830
:2032C0009B183380059B0193A3E7422AE3D0059B019381E729003800202230F049FD23885B
:2032E00020352033238033882037203380E7002B00D052E7039B002B06D03388039A043B4D
:203300009BB213701B0A537063881720052B04D02A30062B01D00BF04FF92388834212D8D6
:20332000029A13701B0A5370638893701B0AD3703288131D338023889B1A2380049B0434B9
:203340002D1B1D8029E731230093F7E7134A038892889A4200D91A00049B211D1B880298C8
:20336000C91895B230F004FD3388049AEB183380049B1B88EB18138023885D1B0023258032
:2033800000930AE73323FBE73423F9E71421EAE6D8390018903A0018543A001884B9000047
:2033A000F0B58DB0079312AB069204CB01911B880B92039314AB1B78022B00D0DFE0994B13
:2033C00080001B68C35804930B79498805290ED0062900D1F3E0042911D1934A522B00D1CA
:2033E0001DE11F21D22B00D0EBE01523EDE0049A0332D27F002A00D00EE13F2706E0019BFD
:2034000003201A88894B33271B6898470222019B5B889343042B04D0049B019A0333DB7F11
:20342000537138000DB0F0BD029B0133059352280FD8402811D9413811280ED830F06CFCEA
:20344000550F0D0D0D0D0D0D0D0D22160D0D0D2B0D4C57280AD06C2850D0342738E02B789A
:203460000136237001350134F6B231E00123621C9A436B7829781B020B43941C1380023576
:203480000236F1E729002000102230F071FC103410351036E8E7049B1B7F043B9B1B0993AC
:2034A0000593202B01D9202305936B461B7D29002000059A0A9330F05BFC099B1F2B01D868
:2034C00001230893059BE418ED180A9BF318DEB2029B0133029386E029002000082230F0ED
:2034E00047FC083408350836BEE729002000062230F03EFC063406350636B5E70122019B56
:2035000001349443029A1B8852785B1A9BB2572A1AD15B08049A2900127F2380043AD2B248
:20352000931BDEB2023420000892320030F020FC019B019A1B88A41902331380059B089E4A
:20354000029301230893C3E7422AE3D0059B02930123089381E7914251D8089B002B01D156
:2035600091424CD1079B521A1A80019B069A0433E31A1488E4181480002F00D046E7039B4D
:20358000002B1AD0079B039A1B883427934200D247E7069B01981988043040180B9930F0D9
:2035A000E7FB069B039A1B88D318069A1380079B039A1B889B1A079A1380002731E70F21F0
:2035C0001B4A3F278B4200D320E79B009B580293002B00D111E7019B01265C1D00231F00E4
:2035E000049D08932235029BB1B21878079B1A880028B0D0002F02D1914200D814E7019B78
:2036000034275B88052B00D000E7019B1B88172B00D8FBE6033FF9E61721064AD1E71423B3
:20362000D3E7C0469CB90000D839001808BF0000543A0018903A00182C4B82001B6870B55C
:20364000D4580500E068002820D0294B82889A4216D10121028A280000F034FD011E05D0AD
:20366000002334228360280000F09EFDE0682DF0D1FF0023E3600023E3760433237770BD26
:2036800034230C3003702DF093FFF2E7E37E227F9A42F0D9032BEED9210004201F312A023F
:2036A0004D7813B20243E07F2D0205431100342628B2052D0AD0062804D0013E042805D1D1
:2036C000062100E008213426194389B24A2309482DF04AFF0023067043808380C580A31C42
:2036E000DB7F03722DF064FFC5E7C0469CB900000E0A0000130A0000F0B50E00A44B170086
:203700001B68820085B0D5580290E87E2C7FA04225D23B88002B01D105B0F0BD241A9C4288
:2037200000D91C001D3022003168281830F020FBEB7E1B19DBB2EB763A88121B3A80326843
:2037400014193460042BE0D1AB7F6A7F1B021343172B00D917232A7F9B182B77D5E7A04251
:20376000DAD1AB7F6A7F1B02134300932B001F335B78EA7F1B0213430193403B3F2B00D907
:20378000A7E00121019A029800F09CFC041E00D1EBE0431CDB7FDB0700D4E6E08668002EB4
:2037A0003BD033000C3BEB603389708803930027618A009B99426AD3A38A9C46002B00D11F
:2037C00083E0228A039B9A4200D280E0002834D19A1C009B9A4235DB002F59D16346013B86
:2037E000A382002E30D1029A039B100204220A339BB20243E18B67482DF0B6FE0123C380E1
:20380000019B47808380039B038103000C3BA060EB600770009B2B834AE0009B012B08D9F9
:203820002B0021331A785B7830001B0213430393BDE7300034270396BAE7009BC218039BEF
:203840009A42C9DD342723E0F488009B01340230C018A4B24B1EF480C018FEF7D9FB80B22C
:203860008442D7D90421029B4B481A02114306230A002DF079FE03230370019B438001232A
:203880008380F388013BF3802DF092FEC2E7322702983A00210000F087FCE868002803D099
:2038A0002DF0B8FE0023EB600023A360332F5CD0E868002800D12FE7002F00D12CE70C3065
:2038C0002DF076FE0023EB6026E73B27E0E73127DEE70426AB1CDB7F0393029B1B021AB22F
:2038E0001E436B4604215B5E0199052938D0062B31D0042B39D106240298144303F0B2FEDF
:20390000009B312798428041A4B20740009B002B00D134270AF050FE009B984222D34A236B
:20392000002F02D1009B4A339BB2320021001B482DF01AFE00234380019B0770C3807B423C
:203940007B41009A5B4213408380039B0C3803751300E8605FE708241443A4B20027D5E767
:203960003400FBE731274A23DFE70422029B0B48190211434A230A002DF0F6FD332700231D
:20398000019A43800770C28083800C38E8608FE79CB900000E0A00000B0A0000130A00006C
:2039A00042574200426C42005757576C42004B005752004241005050004257576C5700427D
:2039C0004C575700424C5757575700424C5700424C5757575757000000000000A0390018EC
:2039E000CD390018CD390018C1390018A4390018A8390018A5390018A9390018A4390018A6
:203A0000CD390018A5390018C1390018A5390018BC390018A5390018A9390018A439001898
:203A2000AA390018B5390018AA390018AA390018A9390018A939001870490118B5390018C3
:203A400000000000AA39001800000000AA390018B5390018000000005849011858490118F6
:203A6000AE390018AE39001870490118AE390018B0390018AE390018B3390018AE39001874
:203A800070490118B6390018AE3900187049011800000000B9390018000000000000000072
:203AA0000000000000000000BF390018BF39001800000000000000000000000000000000E6
:203AC000000000000000000000000000000000000000000000000000C4390018CB390018B5
:203AE000CF390018CF390018BF390018F8B50E008A880221050000F0E5FA041E0ED0471C4F
:203B0000FB7FDB070AD5818B1D4BF2885B1A9A4206DD01003D22280000F046FB0020F8BDBA
:203B2000002AFBD004232A02C18B1A4315482DF01BFDF288A38BD318A383E3894280038098
:203B40002DF036FDFA7F9307E8D56368002B04D10D4B290003201B6898470222FB7F934300
:203B6000FB770A4BAA001B686168D0580C3904302EF02CFD01212800FEF7BEFACEE7C046EE
:203B8000FFFF00000C0A000008BF00009CB90000F7B50D0000210600FEF73AFC00282ED0C4
:203BA0006A7843789A422AD10178012927D18288300000F087FA3323041E01931AD004272A
:203BC00033021F43390026482DF02CFCAB890B2B44D8244AD35C0193002B06D1AA88130064
:203BE000403B3F2B0DD94C23019300222100300000F084FA00213000019AFEF701FB002019
:203C0000FEBDEB88162BEED92B89162BEBD90221300000F057FA0028E5D13A00E18B0C236E
:203C200011482DF0A1FCAB88E382EA8822832B8963839C4601236989651CA183EF7F3B439F
:203C4000EB77A3894380E389C1808380634643810023028103702DF0ABFCCBE73C23C3E75E
:203C6000140A000038400018080A000070B50D0000210400FEF7CCFB00281ED06A784378BE
:203C80009A421AD10378022B17D101214288200000F018FA4725011E04D00122200000F02D
:203CA0002DFA002504212302054819432DF0BAFB2A0000212000FEF7A3FA002070BDC046A3
:203CC000140A00001523F0B589B002AA05009B18162288880F0002A9521829000AF058FD68
:203CE00084B2472C00D193E00121280005F0E0FF02AB01005E7D002800D071E0B3070CD051
:203D0000280005F0D5FF002806D00221280005F0CFFF3924002800D13624E0B200F0B4F9C7
:203D20000590002800D07AE0FA881300403B3F2B01D9092305933B89162B00D86AE07B8959
:203D4000162B00D866E00221280000F0BBF90A23002800D062E00121B8880AF033FD0028FA
:203D60005BD1059B002B5AD12A02043302A91A43C98A04332F482DF0F7FB0121060024203A
:203D80002DF02AFDBB88059A8381C281FB8802AAC3823B89040003837B89AD004383BB8939
:203DA00021008383D38AC383042303847A78C31CDA77059B436083601F4B1B68E8581030D6
:203DC0002EF03AFCA38930003380E38A7380238BB380638BF3802DF0EBFB002009B0F0BD55
:203DE000B3070CD402AB5B7D5B0700D495E7280005F098FF0F2800D98FE738248DE72800C0
:203E000005F07AFF03231E40B04200D284E7E9E73A2482E70B23059395E7042305930023C6
:203E200028007A78059902930193009300F004FAD3E7C046060A00009CB90000F8B50E0040
:203E4000CA880221050000F03DF9041E12D00127421CD37FBB43D377A322831CDA77C28A9D
:203E6000C3897178280000F027FA3A002100280000F044F90020F8BDF8B58B8804000D007E
:203E80004C27022B01D8274AD75C00212000FEF799FA431E06000021012B03D82000FEF798
:203EA000B7FA41780423220210B21A436B788B422ED111001C482DF0B5FA012E14D1002109
:203EC0002000FEF7A5FA002807D082883100200000F0F8F80022011E16D120003A00002151
:203EE000FEF78EF90020F8BD022EF6D100212000FEF78EFA0028F0D001214288200000F0D8
:203F0000E1F8011EE9D00122200000F0F7F8E4E708230343280099B208382DF06AFB01203C
:203F2000E1E7C04644400018140A0000F0B585B01C000AAB1E8800270423150002020391AD
:203F40001343052101220097FFF720F88580012D03D0022D0FD0C78003E00472240AC580F6
:203F60004472039B4370C38801335B004380FFF723F805B0F0BD04728672240A360AC58009
:203F80004472C672EDE773B505000E0005F068FD041E08D103000200009071782800FFF733
:203FA000C5FF200076BD08212A023000042513B2194308382A4389B22DF01BFB0120F1E707
:203FC00037B504000D0005F04BFD012809D16978002520002B002A000095FFF7A7FF2800D0
:203FE0003EBD082122022800042413B219430838224389B22DF0FDFA0120F1E773B50823C8
:2040000000240D790B4A1678AE4200D15468013BDBB20832002BF6D1002C02D00431A04787
:2040200076BD4979230022000094FFF77FFF2000F6E7C04648400018003C3A3C353637380F
:2040400039333E403C31330001000000793E001812000000C13F001813000000873F0018EB
:20406000060000003D3E0018070000006D3C001814000000C53C001815000000913B0018B9
:2040800016000000ED3A0018030000B500280DD0353BDAB218000623052A07D8052804D8BA
:2040A0002FF03AFE0608030A0C0E062398B200BD0423FBE70523F9E70723F7E70823F5E724
:2040C0000223F3E70C4B80001B68C058002811D0006900280ED0012908D0022908D00029C9
:2040E00002D18389934205D00068F2E7C389F9E7C38AF7E77047C0469CB90000F0B5284B75
:2041000085B01B6803928200D658070030000C0010302EF0ADFA631CD97FA0894907C90F32
:204120000AF06AFB039B002B10D004233A021A43E18B1C482DF018FAE3890380A31CDB7FB0
:20414000002B00D1463383702DF032FAA068002807D0F3680C38834201D10023F3602DF0DE
:2041600059FA6568002D15D00C3D2900301D2EF07FFA039B002B0AD0002063682A891978E5
:2041800001909B88380000934623FEF721F828002DF040FA20002DF0A9FB05B0F0BDC04661
:2041A0009CB900000A0A0000042370B50C0001021943150008480A002DF0D6F9E389438055
:2041C000022303702DF0F4F90121621CD37F02348B43D377E57770BD090A0000F0B5042494
:2041E00087B01D000CAB1B880F0003930DAB1B88160004930EAB1B881422059303021C43D6
:204200000023052100932300FEF7C0FE039B47708381049B86804381059BC5800381FEF7CC
:20422000CBFE2100024A03482DF062F807B0F0BD30750000140A0000F0B585B01C000AABB4
:204240001F880BAB1E880CAB1B881500039304230202134300220291009205211532FEF72C
:2042600095FE039B4570C380029B8480478106818381FEF7A1FE05B0F0BD0000F7B5042457
:204280001D0003021C4300230F0016000521062200932300FEF77AFE4770C6808580FEF7ED
:2042A0008BFE2100024A03482DF022F8F7BDC04630750000140A000073B51C000423150089
:2042C0000202134300220E00009205210732FEF75DFE46708580C480FEF76EFE73BD73B55B
:2042E0001C00042315000202134300220E00009205211632FEF74AFE46708580C480FEF7AB
:204300005BFE73BD7FB505000E001400684610220A492FF02DFD0C20042C03D0022C01D00F
:20432000002010243100220068442FF021FD2800102269462FF01CFD7FBDC0468C4A00187C
:2043400070B516001D0088B0022909D1022B0BD12A0031002FF0FEFC43425841C4B206E0D1
:20436000042907D1042BF3D00024102D04D0200008B070BD1029F7D10A0001006846FFF75C
:20438000C1FF2A00310004A8FFF7BCFF1022684604A9DFE707B513006A46063213800223E3
:2043A000FFF7CEFF0EBD000030B51025040085B02A00684608492FF0DBFC210002220C317B
:2043C00003A82FF0D5FC2B00220029006846FFF7B7FF05B030BDC0468C4A001830B51025C2
:2043E000040085B02A00684608492FF0C1FC210004220C3103A82FF0BBFC2B002200290004
:204400006846FFF79DFF05B030BDC0468C4A0018F0B587B003930CAB019204CB02901E8803
:204420000FAB1F7804ABD98001230025072118000492039A934235D31623681C032158430E
:204440002DF0CAF9029B04001B884680038060239F4307710126002704AB45710222063005
:20446000991D2FF085FC0E9D0835039B9E4229D3200000F057FB051E0ED12388029A0100D8
:20448000138007220300944601270398CAB2904202D90498002838D120002DF027FA280044
:2044A00007B0F0BD019A002A07D0019CDA08A25C1C000C402241024201D00135EDB2013396
:2044C000DBB2B6E7019B002B07D0019AF308D35C072232401341DB0713D5162316207B4369
:2044E000EA88E3181A85AA88124901370A4078435A856A882900DA84201802222FF038FCDF
:20450000FFB20136F6B20835AFE70198002807D0019ED008305C664632401041384206D0DE
:20452000029A049812889A1801334254DBB20131ABE7C046FF9FFFFFF0B587B003930CAB11
:20454000019204CB0F001B88029005930FAB1D7801230026072118000492039A93423AD32F
:204560001620731C584303212DF036F9029B04001B8805710380059B6D064671438002227D
:204580000630AD0F03D09218012D00D00C323900012600272FF0ECFB0E9D1635039B9E426F
:2045A00029D3200000F0BEFA051E0ED12388029A0100138007220300944601270398CAB215
:2045C000904202D90498002843D120002DF08EF9280007B0F0BD019A002A07D0019CDA08EB
:2045E000A25C1C000C402241024201D00136F6B20133DBB2B1E7019B002B07D0019AF30871
:20460000D35C072232401341DB071ED516227A43AB8AA21813856B8A781C5385298A5B13A9
:20462000D1840321162219408C4603215043143A20180B4204D063460232012B00D00C3229
:2046400029002FF095FB0137FFB20136F6B21635A4E70198002807D0019ED008305C66469D
:2046600032401041384206D0029A049812889A1801334254DBB20131A0E710B586B06A46E8
:2046800003880400013968461380517100F026FA6B461B88238006B010BD0000F0B585B0EA
:2046A00001930023140002AA0F0011000293137100F008FE061E07D1A02102A8890100F073
:2046C00057FE002803D00626300005B0F0BD204902A800F04DFE0028F5D11E4902A800F08F
:2046E00047FE0028EFD11C4902A800F041FE0028E9D1A42102A8890100F03AFE0028E2D171
:20470000164902A800F034FE0028DCD1144902A800F02EFE0028D6D1029A0420115E93885D
:204720000029D0DB1B051D0D55196B88A34200D207262A883B19934207DC201D3A00019947
:2047400028182FF015FB6F80BEE70D26BCE7C04601280000032800000228000002290000D1
:20476000032900000023F0B58FB006AE03913100070015000693337100F0A4FD041E1BD195
:20478000A0213000890100F0F3FD002817D00F2702ABFF1801233900300000930AAA00F0F1
:2047A00043FE041E08D14B4E3A78039B30001A800AA92FF0DDFA2E6020000FB0F0BD300017
:2047C000454900F0D5FD0028E1D13000434900F0CFFD002826D0013708AEBFB208943100ED
:2047E0003471380000F06EFD041E4FD101230F210093030002A809180AAA300000F014FEA4
:2048000002ABDA7B0399D31C0B80089B34495B8834481B0A4B77CF830AA92FF0A9FA2D4BDB
:204820002B60C9E73000304900F0A2FD00282FD0336808AE9A8831001205120D9B18587980
:204840001A79000208941043347100F03BFD041E1CD10F2702ABFF180123390030000093DE
:204860000AAA00F0E1FD3F78039A089E3B1D13803100022217482FF07BFA0222B11C1B4835
:204880002FF076FA3A001A480AA9C6E7802493E7A4213000890100F06BFD3168002808D0FF
:2048A0008A881205130D0222CB18039904330A80B6E704200A5E8B88002A08DB1B051B0DBA
:2048C000CB181A1D2A605B88039A138074E7062472E7C046D5B9000001280000032800005B
:2048E000B8B90000D8B9000002280000D7B90000D9B900000023F0B587B0019202AA00919B
:20490000110004000293137100F0DCFC051E07D1A02102A8890100F02BFD002803D0062573
:20492000280007B0F0BD204902A800F021FD0028F5D11E4902A800F01BFD0028EFD11C4976
:2049400002A800F015FD0028E9D1A42102A8890100F00EFD0028E2D104AF013C3900A0B27F
:20496000029E04953D7100F0ADFC00280DD138000E4900F0FDFC002807D07388009A1B0A80
:20498000120A934201D004F0D7FD8022009B019952017380B388114202D01343B380BFE7E1
:2049A000044A1340FAE7C046012800000328000002280000FFEFFFFF73B5002315006A46F5
:2049C0000E0069460093137100F07CFC041E07D1A0216846890100F0CBFC002802D00624CD
:2049E000200076BD68460F4900F0C2FC0028F6D168460D4900F0BCFC0028F0D168460B492A
:204A000000F0B6FC0028EAD1A4216846890100F0AFFC0028E3D1009B5A88B2432A435A80E4
:204A2000DEE7C04601280000032800000228000010B50C0000F0AEFA03000120002B06D09F
:204A400060220020997A944311402143997210BD10B50C0000F09EFA03000120002B04D0C1
:204A6000602200209B7A9343237010BD10B5012804D0022801D100F075FA10BD0022024BF0
:204A80005A609A60F9E7C046B8B90000FB349B5F800000800010000000000000F7B50E4CCC
:204AA000050027680E000192002F14D0002806D1200010220C302FF05BF9012323773B684D
:204AC000002B03D031002800019A984720682CF00DFF00232360F7BDB8B900000288104BA5
:204AE000002A18D101221B680280002B16D041790288521899888A4210DBDA880132F2E776
:204B0000D988914207D3417900209B888A189A424041C0B270471B68002BF1D10020F9E7F2
:204B2000BCB90000F0B589B00190FFF7D7FF051E039016D1019B10241E797606B60F08D0A8
:204B40000434012E05D0022E00D1EBE14023043C0393019B5B79AB4200D8C7E0039B002B6E
:204B600010D0039809B0F0BD6022019B01991B7938009343019A1231137132002FF0F8F857
:204B80001024E6E716236B43019AD3185B8D5B049B0F38D0012B31D0022B02D04023039389
:204BA000DFE71027A01D83B202931623691C4B430493049A019B39009E18A02230009201E0
:204BC000FFF7E8FB0028E9D139003000CC4AFFF7E1FB0028E2D139003000CA4AFFF7DAFBA6
:204BE000002815D016236B43019AD318A022DB8C1201134093421CD05623D0E7A01D83B2C9
:204C000004270293D1E7A01D83B202270293CCE739003000BC4AFFF7BDFB0028E2D1390088
:204C20003000BA4AFFF7B6FB002806D00C34A3B202930135029CEDB28BE7A422390030005D
:204C40009201FFF7A7FB0028F0D139003000B04AFFF7A0FB0028ECD1042F03D10A34A3B2CD
:204C6000029316E0102F14D13000FFF79DFB002821D016236B43019AA649D3185A8D0A4021
:204C80005A8502220499019B0C31591830002FF06FF816236B43019AD3182A215A5E002ADA
:204CA000C7DB188D01230005000D05309843029B181883B2BCE73000FFF790FB002813D006
:204CC0000A34A3B2029316236B43019A9149D3185A8D1140802292010A4304995A85019B93
:204CE0000C3104225918D1E71634B8E7039B002B00D036E7200001212CF06EFD019B019A89
:204D00001B8805008380527904199B18C380019B039A5B880381019B1B79C27283725B06B0
:204D20009B0F17D1019B0222991D0C302FF020F80027019B5B79BB4220D800230120764A68
:204D40001168002900D1D5E0002B00D1C8E004F0F3FB06E7012B0AD10422019B043C991DF9
:204D600020002FF005F82B1DE31AAB81E0E7022BDED1019B1022103C991DF1E716210B00F9
:204D80007B43019AD3187A1C51435B8D019A5B049B0F06915618002B23D1062078430E30D6
:204DA0000222310028182EF0E3FF0223029306237B430793EB18049316237B43019A3000C7
:204DC000D3180593049ADB8C02991382504AFFF7E1FA002829D00023049A53820137FFB210
:204DE000A7E7012B0ED1043C0422310020002EF0BFFF06237B43EA180E33EB18E31AD38109
:204E00000423D3E700220292022BD0D1103C1032310020002EF0ACFF06237B43EA180E335B
:204E2000EB18E31AD3811023C0E73000374A0299FFF7B0FA002813D002220699019BA61F29
:204E4000123132807280A01E59182EF091FF06237B43EA180E33EB18F31A34005382BDE7A7
:204E6000A422300002999201FFF794FA0028E3D13000244A0299FFF78DFA00280DD01622BB
:204E800006237A4301997B438A18528D2349D204D20FEB180A435A82A0E730001A4A02994E
:204EA000FFF778FA0028EAD1059B1D492A229A5E059B11401B8D1B051B0D002A03DA194319
:204EC000049B59828AE701265A1DB243A41A079A23800E32AA18A21A049B60800A43DAE707
:204EE000AE888C88A64203D229600300156027E70A0025E7002B00D029E715602B6026E76E
:204F00000128000002290000032900000228000003280000FF9FFFFFBCB900000280FFFF2B
:204F200000F0FFFF019B9F1D3800FFF73DFA002800D019E63800FFF751FA20231C000028CF
:204F400000D106E66021019A380012790C3C8A4313430199019A1231137104222EF008FF03
:204F6000F7E5C04670B50A4C606800280AD12068002801D02CF0BAFC00236360A36023604A
:204F8000237770BD05682CF0B1FC2800EDE7C046B8B90000104A0300906810B551680028A6
:204FA00006D084889C4203D8C18899420ED2016808000121002809D084889C4209D8C488A7
:204FC0009C4204D3C47A0C4201D1906010BD0068F0E70020FAE7C046B8B90000F0B5A04BBA
:204FE0008BB0049006911C7F002C09D0071E04D00A0000209B49B847002738000BB0F0BDDE
:2050000027005E68002E66D0002F08D0944C20680028F2D02CF06AFC00232360EDE70122C7
:20502000F37A134218D10320B288F388B17A9B1A49110622DBB2014200D00E32A4180622C7
:205040003500002753430E355B19A4B20393039B9D4201D0002F01D03668D3E703226B88FD
:205060005B1313420BD1A4222B88920193422ED007D87D4A93420AD07C4A93421DD006359A
:20508000E5E77B4A9B18042BF9D8043413E0AB881B051B0DEB1858791A7900021043FFF774
:2050A00079FF002815D00321827A0A2352110A4200D00E33E418A4B2E1E703216A890734F2
:2050C0005213A3B202240A42F4D00E34F2E70634F1E75127D3E7002F98D10321201D2CF06C
:2050E0007BFB2500049A5E4B026018605B6803900493049B002B00D19DE0002F03D0432F7B
:2051000000D17AE782E70122049BDB7A13423DD1049B06A99E88DB8809AA9B1BDBB2079313
:205120000A235B1819003000FFF71CFB049B03999B88AA1E92B25BBA8A189BB2043D137146
:20514000ADB21B0A53714A197F21049B07009B7A282099429B415B42537106AB5B890399B8
:20516000ED1AADB210712A1D8A180999002B11D1049B01360E330593079BB6B2F3189BB29F
:205180000793079BB34201D0002F09D0049B1B680493AEE7013B9BB2C85C10700132E5E78B
:2051A0000322059B5B885B1313423ED1A422059B92011B88934204D032D82E4A9B18012BCF
:2051C00033D801220398AB1E9BB271BAC31889B21971090A5971059B043D1B88ADB25BBA50
:2051E0009BB241190B711B0A4B71002A1DD00A2306A95B18190009AA3000FFF7B3FA07009F
:2052000006AB5B890399ED1AADB22A1D8A180999002B0AD0013B9BB2C85C10700132F7E729
:20522000134A9B183A00042BCCD9059B01360633B6B20593A5E7002F00D060E7002D05D06C
:205240000D4B2200290003201B689847069B039900932200094B0A4804312DF097FCCCE6F7
:20526000B8B90000C4B900000228000003280000FFD6FFFFFED7FFFF08BF00009D4A00187F
:205280002C56001870B50E4C6368002B01D1012070BD9A888242F8D8DA88824201D21B68AD
:2052A000F3E7DA7A0120150005408D4204D082430A43DA7204F040F90020A060E8E7C04622
:2052C000B8B9000070B505000C00FFF763FE03000120002B07D09888A84205D10433236010
:2052E00001230020237170BD01302D1A062068430E301B18002023602071F4E770B51B4C54
:20530000A3686268002B07D005889E88AE4203D8DA88AA4216D21A6813000122002B01D14D
:20532000012070BD06889D88AE4207D3DD88B54202D3DD7A154205D01B68EFE7DE7A1642E5
:20534000FAD105809A880088824206D11A1D0A6001220A710020A360E3E70132801A062297
:2053600042430E329A180A600022F2E7B8B90000030000791B6800280BD1002B08D09A88B8
:205380005204920F04D11888401A43425841C0B27047002B0AD0A02292019142F8D09B79F7
:2053A00000207F2BF4D9024BC818EEE71800EFE7FFD7FFFF70B50D00A02189010400FFF71B
:2053C000D7FF0623002826D120001449FFF7D0FF062300281FD120001149FFF7C9FF0623CB
:2053E000002818D120000F49FFF7C2FF0623002811D1A42120008901FFF7BAFF06230028CB
:2054000009D121688A88130512B21B0D002A00DBCB5A2B800300180070BDC04601280000C7
:20542000032800000228000073B50500100006AA167800220A700C002968013200291AD01D
:205440002A79002A35D08A79002B22D053069B0F19D0012B0CD10333237029680B89C91896
:20546000002E14D00422FEF74DFF1023237001E0022B02D00022100076BD10232370296851
:205480000B89C91803E0022323702968083122780AE052B2002A0ADBA0239B016A46D38039
:2054A00002226B462270991D2EF062FCE2E70D4BF4E78B885B049B0F08D0012B0CD0022B2E
:2054C000D8D10E33237029680B88DAE70223237029680029CED0DAE70423237029680B88BB
:2054E000BDE7C04601280000F0B585B00A9E0F00336815000190002B26D0A021300089016B
:20550000FFF736FF002818D130004249FFF730FF002812D130004049FFF72AFF00280CD187
:2055200030003E49FFF724FF002806D1A42130008901FFF71DFF002816D080239B00002D92
:205540000BD12C003B8005E031000198FFF7BAFE041ED2D0200005B0F0BD9D4201D006240B
:20556000F8E700243C80F5E7336804005B883B80002DEFD01D42F2D002ABD871D91D0198C1
:20558000FFF766FA041EE5D133680C349A8880235B011A4207D102AAD17902220C00144033
:2055A000114200D00C249D422FD00DD880239B009D4218D010D31A4B1A4AEB1813420BD1F0
:2055C0003B881B079B0F11E080239B019D4219D08023DB019D42F3D0134B2A0003201B68F5
:2055E0000199984703E003223B8813403B8002ABDB79DA060CD43A881B079B0F9A42A9D2B3
:205600003B80A7E73B889B06DCE73B881B06D9E708249FE701280000032800000228000046
:2056200000FCFFFFFFFB000008BF00000000000000000000000000000000000070B50D7805
:2056400006001B3D6B1E9D411A4B0C00ED181A4B4A881B688100CB589B69002B04D130007D
:2056600004F01EFB010006E09988914220D8D98891421DD3198932020626A388324306334B
:2056800028009BB22BF070FF237805001B3B5A1E934112330370A288A1194280638883807D
:2056A00080192EF065FB28002BF082FF002070BD1B68D2E70C0C0000B0B9000010B501211E
:2056C000040001F0EDFF0C2804D000220F2810D041220EE00121200002F02EF841890389A7
:2056E0000022994205D0064BA2001B68D3582C331A782000012102F0C7F9002010BDC0465F
:20570000B0B9000070B50D00040008F055FF6988814200D90100200089B202F031F8012178
:20572000200001F0BDFF00220100012801D041220121200002F0A8F9002070BDF0B587B01E
:2057400002910121040001F0ABFF41220B2816D100260121200001F0EFFF062237002302AD
:205760001A43039005920096039B009A5B7893420CD8029B5B88BB4200D050263200200033
:20578000012102F081F9002007B0F0BD0121200002F08CF8009B039A9B00D3180193DB888A
:2057A00001000633059A9BB215482BF0DDFE019B05009B880380029B5A88019BD21BDB88BE
:2057C0009A4200D91A0093B20493AB8000236B80029B391D5918A81D2EF0CAFA049B049A9D
:2057E000FF18019BBFB2DB88934200D0502628002BF0DEFE009B0133DBB20093B4E7C04658
:20580000090C0000F7B50E000121070001F048FF0C2824D10121380001F08EFFB588C388CF
:205820000400ED1AADB229000C31458141183000F38808301A0001932EF08CFA00280CD13F
:20584000019B5D1923899D4207DCADB201213800658101F0F9FF0020FEBD044DF6E74122D4
:205860000121380002F010F9F5E7C046FFFF0000F0B585B001910121040001F011FF4022FE
:2058800003281AD10121200001F056FF06220500002623021A43A3000393274B02920093C3
:2058A000019B5B88B3420DD8009BEA8801339BB29A4201D3002B37D10A220121200002F0BE
:2058C000E3F836E00121200001F0F0FF6B780100029A063319482BF047FE019B07009919E6
:2058E0004A790B792900120213430380019AB31C9BB2D3185A791B79120213434380009382
:205900006A780831027105302EF032FA38002BF04FFE0B4B039A1B6804369B58B6B24C3350
:205920001A7801321A70BBE701212000AB8001F08BFF002005B0F0BDFFFF0000040C0000FE
:20594000B0B90000F0B587B002910121050001F0A7FE402207281FD10121280001F0ECFE0C
:20596000029B03905B780227012B00D00E370024062226002B021A43AB0004920593029B48
:205980005B88B3420DD8039B0134DB88A4B2A34201D3002C30D10A220121280002F074F804
:2059A00030E00121280001F081FF049A01003B1D16482BF0D9FD029BB11C9B195C791B794F
:2059C00024021C4389B2029B04313A00591801900480877003302EF0CBF9BB1C0198F618EB
:2059E0002BF0E6FD0A4B059A1B68B6B29B584C331A7801321A70C2E7039B012128009C805C
:205A000001F022FF002007B0F0BDC046070C0000B0B90000F0B587B000914E884F78012142
:205A2000040001F03DFE0500022800D07FE039003000FCF7EDFA002800D178E00121200002
:205A400001F07AFE009B02905B78142B00D10E3500260622370023021A43A30004920593B2
:205A60000396009B5B88BB4259D9002E59D1314B039A9A4211D1039B029A0133D2889BB29C
:205A80009A424ED3002B4CD0029A01212000938001F0DAFE002007B0F0BD0121200001F051
:205AA00005FFAB1D0100049ADBB223482BF05CFD009B461DD9194A790B79120213430380EB
:205AC000009ABB1C9BB2D3185A791B79120213430393391D039A009B89B204314280591885
:205AE0002A000190057130002EF042F92B1DDBB2029AFF18029B08325B7829003000FEF76C
:205B00001FFC060001982BF053FD0C4B059A1B68BFB29B584C331A7801321A70A1E7002EFF
:205B2000A9D000220121200001F0AEFFB2E74122F8E7C046FFFF0000040C0000B0B9000092
:205B400010B50121040001F0ABFD00220C2800D041222000012101F097FF002010BD000082
:205B60007F2310B50A780C001340522B09D01E2A07D0062100020143C420044A00012BF0AD
:205B8000B7FB2000FDF718FA10BDC04630750000062302021343002213B5042100921E3241
:205BA0000400FDF7F3F901002000FFF7D9FF13BD062337B50202134300220D0000920421ED
:205BC00018320400FDF7E2F9457001002000FFF7C7FF37BD70B50B7904000D00122B0ED14C
:205BE00004F05EF80622230201001A4317482BF0F9FC012120002A7901F046FF24E00A2BED
:205C00000BD1134B82001B68D3584C331A78002A03D000221A700A71EBE76B78162BE8D136
:205C20000121200001F088FD0028E2D04378002BDFD0074BA2001B680021D3582A792C3378
:205C400020001A70FFF7B4FF002070BD230C0000B0B90000F0B50C0089B00121050001F00A
:205C60001FFD062805D804282FD800D1A4E0402249E00A28FBD12800667801F0F3FC0238CC
:205C80000121864200DB13E1280001F00FFE06226378010028020243043396482BF064FC22
:205CA00000260700637922791B02134303806278A11D023A92B28280468006302EF058F8C6
:205CC00038002BF075FC32001DE00121280001F033FD049063781027072B00D80E3F062241
:205CE0002B021A43AB00079300231E00069205936388B3420CD8059B049A0133D2889BB287
:205D00009A4250D20A220121280001F0BDFECDE0A219537912791B021A43049B05921B7861
:205D2000052B30D10121280001F0C0FD069A0100BB1D71482BF018FCB31C9BB2E3181B792E
:205D4000059A0371F31C9BB20280E3185A7905361B791202B6B21343311D43803A00039005
:205D60004771611806302EF003F803982BF020FC624B079A1B68F6199B58B6B24C331A7885
:205D800001321A70B4E73000049B049A093039005B7820180832FEF7D3FA0028C2D163782F
:205DA000F618B6B2A4E7049A002BABD001212800938001F049FD79E00121280001F0BCFCBE
:205DC000079063885B071ED101230593DB1800260622370003932B021A430692049663887F
:205DE000BB4214D8059B002B01D1002E50D1049B079A0133D2889BB29A4283D3002B00D185
:205E000080E7079AD2E7002305931033DFE70121280001F04BFD039B0100069A0833384880
:205E20002BF0A2FBE219537912791B021A43BB1C9BB20280E31804925A791B7912021343D6
:205E400043803B1D9BB2E3185A791B79120213438380059BB91D060089B2002B0FD0039BAC
:205E600004311A008371611807302DF081FF039B30000633FF18BFB22BF09AFBAFE731008C
:205E80001E4BAA001B680C39D05810302CF09EFB00240421069B0A2228000094FDF776F8D6
:205EA0007388010043802800FFF75AFE00201EE0280001F041FC637922791B02134300222D
:205EC00083806378028122002100023B9BB2083AC3805380094BAA001B681439D058103006
:205EE0002CF074FB0121280001F0AEFC012009B0F0BDC046090C0000060C0000B0B9000015
:205F0000050C0000F0B5374C830085B00393236882009B5805001B69002B47D0012101F01C
:205F20000BFC2368AA009B5807001C69012123000C3301932800E68901F0B8FC2A020625FB
:205F4000B31D01009BB22A4327482BF00DFB8680BB8805000380FB88002602934380237DB2
:205F6000092B17D12100627D0630023A1A312DF0FFFE637D27689E1EB6B2002F03D0029AFD
:205F8000D31A02336B8020002BF044FB3B003C000C330193002C0BD1124B039A1B689858BB
:205FA00010302CF0FDFA28002BF002FB05B0F0BD019BB01D19005A8928180C312DF0D8FE17
:205FC000019B24685A899619B6B2002C02D06B889B1A6B8001980C382BF01CFB20000C30A3
:205FE0000190D7E7B0B90000090C0000F7B50D000121040001F054FB042830D00838C0B2D7
:20600000022800D97DE00121200001F095FB2B000022290006003C4F083B5A80A300019302
:206020003B68A2009858143910302CF0CFFA3289002A43D13B68A2009B586F881A69D389B2
:20604000FB189BB2D3818222920093423CD3F83AFF3A0121200001F017FD0120FEBD0121C2
:20606000200001F069FB284BA2001B680700D05810302CF0F3FA291D0300102506000C33D8
:206080002A00133001932DF073FE0198B5742BF08FFAB389FA8801339BB29A4201D3002BF1
:2060A00005D10A220121200001F0EEFC04E001212000BB8001F0C8FB0020CFE76B8893420E
:2060C00000D913006B80B5E7200001F0CBFA0138874205DB6A8833899A4206D3002B04D033
:2060E0002000FFF70FFF0022B3E7F1885118F180002B01D09B1A33810121200001F0A4FB36
:20610000ABE74122CEE7C046B0B9000070B50E23050000260C000A7A0E490878904200D1DB
:206120004E68013BDBB20831002BF6D1FF20002E0ED01B3AFD331A4206D00621C4202B029B
:20614000194300012BF06EF9210028000831B04770BDC0465861001803000000055700186C
:206160000500000045590018070000007158001809000000555C001811000000155A001812
:206180000B000000ED5F00180D000000ED5F00180F0000003D57001813000000415B00189D
:2061A000170000000558001819000000BD56001801000000D55B00181D0000003D560018FE
:2061C0001B0000003D56001870B5040008000E00FEF7E0FE051E05D1064B32002100032027
:2061E0001B689847AB7A2889DB0701D52402204370BDC04608BF000037B514006A46002359
:206200000D00911DD380FFF7D5F8002807D16B46DB88A34204D964199C4200DD0D303EBD67
:206220000720FCE7F0B50E000621714305001000224A85B054188A5A0E2167880093694462
:206240003B00FFF751F9062805D00C2805D0041E04D005B0F0BD2079F9E701246B46DB89AC
:20626000002B01D10020F4E7280003F045FD002809D0032E09D1280003F03EFD6B46DB8952
:2062800080B28342EED90520E3E70121280003F00FFD002808D10221280003F009FD0300C0
:2062A0000F20002BD5D1EEE7002CE4D0280003F039FD0F28DFD80C20CBE7C046D4750018A5
:2062C00073B500236A46009313714A888E880C006B4603210500FFF7A5FF021E01D0002033
:2062E00076BD31000C39684689B2FFF785FF0028F5D108212A02EF200625A38816B20733E8
:2063000031432A439BB289B200012BF02DF9F1230370A388050003334380D22303716388CE
:20632000A11D43711B0A8371A28807302DF020FD28002BF03DF90120D2E70000F8B5040033
:2063400015000F0019001E00FFF73EFF22020624AB1D010022439BB208482BF005F900235A
:2063600004002A00390006808580438006302DF0FFFC20002BF01CF9F8BDC046150C0000EE
:2063800037B500236A46009313714A880C006B4602210500FFF746FF021E01D000203EBD29
:2063A0006846A188FFF728FF0028F7D128006388A288A11DFFF7C2FF0120F0E773B51C000B
:2063C000062315000202134317220E0000920421163AFCF7DBFD467045800471FCF7ECFD40
:2063E00073BD00000022F0B587B004AB0F1F04921A713A8805000C00002A2AD0AB0002933A
:20640000444BAA001B6861889858036B002B2FD0DA8A8A422AD140302CF020F93B88029A20
:206420001B051B0D03933B4B01001B68E0889B581F6B002F31D08226B600B446BA8812189B
:2064400096B262452ADB403318002CF0F5F8092305E04A880121FFF7E5FE031ECED02800EF
:2064600062882178FFF7AAFF002014E01B68CDE73B88002BCFD12800FFF7A6FE06222D0208
:20648000010002232A4324482BF06EF8638803802BF08EF8012007B0F0BD0600A2889446DE
:2064A00062884881604608810398C880002F04D1303318002CF08AF808E0F88A904226D9BF
:2064C00030330A00180039002CF086F9114B029A1B6804219B582A021B6B28009E800623AF
:2064E0001343E28800921722FCF750FD21000500638808314380E288C28008302DF038FC8F
:20650000A3882800AB80FCF757FD0220C3E73F68CCE7C046B0B90000170C000037B50023EF
:206520006A46009313714A886B460C0001210500FFF778FE031E0ED10200A1886846FFF7A3
:206540005BFE031E07D128006388A288A11DFFF7F5FE01203EBD280062882178FFF72EFF1B
:206560000020F7E7F0B58DB00600049101F07AF8023883B20593049B5F88B3000693049BC5
:206580009A88BA4200D291E0002F00D193E00E2206ABD21817800027059B0AAA0A97177121
:2065A00003930E2306AA9B1818000AA9FEF7A6FE041E00D078E0049B9A8806ABDB899A4251
:2065C00062D3022118202BF007F90123C21D811D0093050023000AA8FEF726FF041E06D0F0
:2065E00006ABD989434B02001B68032098470E2306AA9B181B88AB80AB790793002F2ED026
:206600009F422CD028002BF071F93B4D069A2B689B589B6B002B61D0059B039A30009C1ABD
:2066200006233202A4B21343009405220421FCF7ADFCBB1E5A1E9341013343702B68069A96
:2066400006009B5840889D6B002324187480002D34D13000FCF7B0FC00200DB0F0BD264B22
:20666000069A1B682900985838302BF0AFFF0E220398079B0238C01A83B2039306ABD218C6
:206680001388079F013313800E2306AA9B18049A1B8892889A42B8D3002BB6D0039A7B1CB7
:2066A000934200DA7DE7B0E70A24AEE70027059B03930124A9E7059B0393FAE7A988F21809
:2066C00002339CB29180201DAA79E91D30182DF04FFBAB792D68E3189BB2B8E7002C00D174
:2066E0000A34049B30005A8819782300FFF766FEB2E7C04608BF0000B0B90000164BF7B5C1
:206700001B688200D358040053331D780F00002D1CD107F051FF062322020421134300955D
:20672000032206002000FCF731FC050007F044FF7988814200D90100200089B201F020F8AD
:2067400028006E80FCF738FC0020FEBD042300220221FFF733FEF7E7B0B90000F7B5140087
:2067600000236A46A5781371009363782D021D432A000E006B4603210700FFF753FD021E2E
:2067800008D10E2E01D90F3EB2B22B003800E11CFFF7D4FDF7BD00000023F0B587B004AECD
:2067A000049333710B7805000C00122B47D01D270521402B0CD03900280002F0CDF91223B7
:2067C0000293002838D1217812394B1E9941043133002800A288FFF725FD029000282BD144
:2067E000E3882800039300F03DFF039BC61E9E4200D91E0006222B021A43B3B20421280087
:206800000392009313003A00FCF7C0FB21000500A38832004380B3B28380083106302DF01B
:20682000A7FA2800FCF7C8FB2378122B04D0054A039905482AF05CFD029807B0F0BD1B2742
:20684000B9E7C04630750000410C000010B58400064B1B681859036B002B00D110BD30307B
:206860002BF0FCFE2BF042F8F2E7C046B0B90000F0B58BB005914B7805000793012B00D092
:206880009CE00B00043B1B88029383000693029B002B40D1594B82001B689B581C6B002CB6
:2068A00039D0029B08AF0493039300233B603B713900E08AFEF706FD021E04D0504B032097
:2068C000E18A1B689847228938006189FFF794FC059B079A043B1A800600E28A002800D014
:2068E00081E0029B9A4203D0E388A080049303942189049B994200D974E004986389814296
:2069000039D20398A04236D00499A380E18003942468002C2DD10026384F069A3B689B5898
:206920001C6B002C4BD02800E18AFFF74DFC0622A3882D02063301009BB22A4331482AF0AE
:2069400013FE00260500E38A0380A388838023894380AB88B34201D8002B03D12A88E38A4F
:206960009A4211D028002AF023FE012420000BB0F0BD029299E7C91889B2049103998988D8
:206980005B1803998B80C3E72100B01D1C31628928182DF0EDF96389069AF6182368B6B23D
:2069A00002933B68985830302BF058FE20002AF09DFF029B002BD5D01C00CAE70026002484
:2069C0002800FFF743FFA642D0D106232A02134317220421009228000232FCF7D7FAFCF720
:2069E000EBFAC3E70726059B280019783300FFF7E5FC2800FFF72AFF8EE7C046B0B900004D
:206A000008BF0000150C000010B58400064B1B681859836B002B00D110BD38302BF01EFEAA
:206A20002AF064FFF2E7C046B0B9000070B5074D84002B681B59986C002806D00C382AF02D
:206A4000E9FD00222B681B599A6470BDB0B90000F7B51F001B4B01921B688200D35804009B
:206A60009B6C0E00002B26D01A888A4221D11D79062D08D0002D07D15A88019905330A809C
:206A80003B602800FEBD80252000FFF7CFFF062DF7D131002000FFF797FB22022A43010089
:206AA000022392B208482AF05FFD06802AF080FDE7E7FFF7BBFF3A0030000199FDF752FEC4
:206AC0000500E4E7B0B90000130C0000F0B50C001D008FB0159E0F8804900392310020008D
:206AE000FEF70CFC031E28D1039A2188128891421CD80F21009004A80AAA09183000FEF772
:206B000093FC021E04D0354B032021881B6898470F2304AA9B1829000AAA1B781498FDF7A1
:206B20000FFC2288002820D101322280039A238812889A4201D3002BD0D10A2327800293EB
:206B400002980FB0F0BD33685D88039B1D80059B002BF5D12188179B169A0498FFF778FFCF
:206B60000290EDE7013EB5B2EFE7330000210498FFF758FB059002903779002FE3D1300010
:206B800017492588FEF7F4FB0028DED0280008AB08971F71FEF7FEF907000135AEB2FD8816
:206BA000B542D2D3BB88B342CFD208A93000FEF789FB0B4908A8FEF7DBFB0028D2D109491A
:206BC00008A8FEF7D5FB011ECCD108A8FEF7D0FB0028C7D10136B6B2E1E7C04608BF000020
:206BE00003280000022800000023F0B58BB008AA1371089383000493504B82001B680500AD
:206C00009858029138302BF02BFE029B03901C1F2388002B04D1280000F024FD013820801D
:206C20000024029B039A5B88934256D9029B043B05931B88002B50D0002C0CD0062C6DD036
:206C4000039B5800029B18188288197828002300FFF7B4FB62E0039B21005E00029B2800C2
:206C60009E19B28808ABFFF7DDFA041EE6D10A2704ABFF183A002800B18807ABFFF7E8FEAA
:206C8000041ECED1059B3F881B889F4200D91F003800BBB20221083005932AF09DFD0600FE
:206CA000BBB283803A00079906302DF061F8234B049A1B683100985838302BF087FC280000
:206CC000FFF7B4FE029B03981A1F1388059901305B1A138083B20393A3E7002CAED1280001
:206CE00000F0C0FC0299062304390E882A02F6438619B6B2134328000F2200960421FCF788
:206D000045F9270005000D4B049A1B6846809B589E6B002E07D12800FCF74EF9A01F434222
:206D200058410BB0F0BD381DB288B11D28182DF01FF8B3883668FF18BFB2EAE7B0B90000E6
:206D4000F0B50E00002189B006AB1971728805000691FFF767FA041E4CD10A2702ABFF18CA
:206D60003A002800718805ABFFF772FE041E41D1B3883F880393BB4207D907342300280073
:206D800072883178FFF71AFB2FE0280000F06AFC039B0138FF1A874200D9070006232A02CA
:206DA000134302AA52890421009228000D22FCF7EDF84780059BB188BFB23A0059180390C1
:206DC00004302CF0D5FF0398FCF7F6F8B38802AA5289DB19934208D1280000F043FC01381F
:206DE000874202D02800FFF721FEA01F4342584109B0F0BD062CF8D0C0E7F0B50E00002103
:206E000089B006AB0691197172880500FFF70AFA041E3BD10A2202A812187188280005AB6F
:206E2000FFF716FE041E31D102AB28005F8900F019FC461EBE4200D93E000623B1B22A022F
:206E4000134303910B22009128000421FCF79EF80700039B32004380059904302CF088FFA5
:206E60003800FCF7A9F802AB5B89039A934208D1280000F0F7FB0138864202D02800FFF76F
:206E8000D5FDA01F4342584109B0F0BD062CF8D02300280072883178FFF790FAF1E700009D
:206EA0000023F0B50C008FB00CAA0C9313714A88163304A95B18251F1A802B880600002BE9
:206EC00000D1B0E00027B30006936A4BB2001B689B589B6B0493002B01D09B790493002F8E
:206EE0005ED11625A3880AAA04A913806D180BA9A37903911A2104A8091802910CA901913E
:206F000021000831009130002900FFF7DFFD071E00D096E004AB5B8B049A934201D0002AED
:206F20003ED1221F1588043DFB2B00D9FB239D4200D91D002800ABB202210C3007932AF099
:206F40004BFC04AB5B8B2A00049304ABDB8A0B99838004AB1B8B0590C380057209302CF0E0
:206F600007FF221F13880799043B5B1A1380414B069A1B680599985838302BF027FB04ABB7
:206F80005B8B079A934202D13000FFF74FFD04AB198B04AA4B1C9BB2D382A288934255D919
:206FA000344D069A2B68985838302BF059FC002856D02B68069A04219B5832029C6B062358
:206FC000257A134304354543ADB2300011220095FBF7DCFF4580237A060004334370002362
:206FE000A288F1180A71120A4A719A1CE18892B2B2181171090A5171210004339DB2281D9C
:20700000227A301809312CF0B3FE237A2468EB189BB2002CE4D13000FBF7CEFFB81F4342E0
:2070200058410FB0F0BD00F01DFB023828806388A28801279A4200D245E7002B00D041E727
:2070400041E70628ACD12B886380E7E79142A7D0049B221F12880333934200DA41E79FE7A2
:20706000162304AA9B181A8830003B002178FFF7A5F9D3E7B0B900000023F0B50E008FB004
:207080000CAA0C9313714A88163304A95B18341F1A8023880500002B00D1A5E00027AB00EC
:2070A0000693654BAA001B689B589B6B0493002B01D09B790493002F5BD11624B3880AAA9F
:2070C00004A9138064180BA9B37903911A2104A8091802910CA9019131000831009128007B
:2070E0002100FFF7F3FC071E00D08BE004AB5B8B049A934201D0002A3BD1321F1488023CF0
:20710000FD2B00D9FD239C4200D91C002000A3B20221083007932AF05FFB04AB5B8B2200E6
:20712000049304ABDB8A0B9983800590847107302CF01EFE321F13880799023B5B1A138033
:207140003D4B069A1B680599985838302BF03EFA04AB5B8B079A934202D12800FFF766FCDD
:207160000AAB198804AA4B1C9BB2D382B28893424DD9314C069A2368985838302BF070FB47
:2071800000284ED02368069A04219B582A029C6B0623A679134302364643B6B22800092219
:2071A0000096FBF7F3FE4680A3790500023343700023A288E91802330A719EB2120A4A7162
:2071C000301DA279E11D28182CF0D2FDA3792468F3189BB2002CECD12800FBF7EDFEB81F59
:2071E000434258410FB0F0BD00F03CFA023820807388B28801279A4200D250E7002B00D0C8
:207200004CE74CE70628B4D123887380E7E79142AFD0049B321F12880133934200DA4CE7F7
:20722000A7E7162304AA9B181A8828003B003178FFF7C4F8D3E7C046B0B900000023F0B5D5
:207240000C008DB00AAA0A9313714A88163302A95B18271F1A803B880500002B37D0AB0052
:207260000593A38802AA138309AB03931A2316219B1802930AAB019302A8A31D009309189C
:207280000223280008AAFFF721FC061E04904ED00A2828D0062814D002AB1B8B02AA013397
:2072A000D382162202A95218A38812889A4206D808AA12889A4202D03B88032BD1D8062EE5
:2072C00011D1162302AA9B181B88638029E000F0C9F9013838806388A2889A4201D3002B12
:2072E000BDD1012304933D4FAE003B68985938302BF0B6FA002800D165E00623800084B227
:207300002A0213430421072228000094FBF73EFE3B6844809B59996B0023002943D1FBF702
:207320004BFE04980638434258410DB0F0BDE3882B4A9B18012B0ED91A2202A952182389FF
:2073400012889A4227D1200009990A302CF002FD00280AD01FE0200002AB9B7E217A099A83
:207360000A30FCF7EDFF0028E6D0022108202AF033FA02ABDB8A059A838008AB1B88010079
:20738000C380164B083F1B68985838302BF01EF92800FFF74BFB162208AB1B8802A9013324
:2073A000521813807DE78A88C4182271120A62719A1CCC8892B282181471240A5471043365
:2073C00009689BB2A9E7162302AA9B181A8828002178049BFEF7F2FFA3E7C046B0B90000E6
:2073E00000D8FFFF07B5002A0AD1062301020B43009204211332FBF7C9FDFBF7DDFD07BD38
:2074000013000A001221FEF7D9FFF8E7F7B505002A4E83000093336882009B581C6C002C6D
:2074200000D1F7BD238A264901930C23227DD800475C974225D109184F68002F05D1214BB6
:20744000290003201B6898470027019B002B1BD0210028001431B84702000128E1D0022812
:207460000CD0002824D12800FFF7CEFA3368009A985840302BF0F2F82AF0CCF83368009A80
:20748000CBE7013BD3D2DAE72800217D01F064FB0028DDD04023217D1942E4D10E2905D18F
:2074A000228B12232800FEF789FFDCE7E28AF8E7044B290003201B689847B0E7B0B900003A
:2074C0006C75001808BF0000F7B50A7A04000D000C231E2A15D1002100F0E2F8132802D056
:2074E000002540280BD10621230219431C4829F099FF00222000110000F0C6FA0025280016
:20750000FEBD1848D900095C914224D10620164FA6003B689B591B6C0193230218432AF0CD
:2075200025FC00230093830604D4019B5A425341DBB2009329003B680C39985940302BF09A
:2075400045F80023AB80009B0125002BD7D02000FFF75CFFD3E7013BD3D2FF25CFE7C04621
:20756000410C00006C750018B0B9000002000000FD660018040000006565001806000000F3
:207580003D720018080000007970001810000000A16E00180A000000FB6D00180C0000004E
:2075A000416D00180E000000E96B00185200000081630018120000001D650018D2000000BF
:2075C000C162001816000000E5630018180000007168001800020300020000080C000300D3
:2075E00000040C00030000400C0003000010C000060000203000060070B50C00184E8500E1
:20760000012911D1336858590369002B06D13368A4005B59E058002813D170BD10302BF0E5
:207620001DF829F0F7FFEDE70229F0D133685859036A002BEBD020302BF010F82AF056F9EB
:20764000F4E729F0F1FF002805D133685B59E0580C3829F0DFFF002233685B591A51DCE7E7
:20766000B0B90000034B80001B68C358503318887047C046B0B9000070B5140006220D007E
:207680000002190004AB1E7802430423C020984029F06AFF05704670448029F089FF70BD27
:2076A00070B50F4B05001B780C00023B984205DB00220C4B110001201B689847032C05D996
:2076C0000022084B110001201B689847064BAD001B68A400EB58E358181E00D0187870BD3B
:2076E000B5BE000008BF0000B0B9000070B50F4B05001B780C00023B984205DB00220C4B54
:20770000110001201B689847032C05D90022084B110001201B689847064BAD001B68A4009A
:20772000EB58E358181E00D0588870BDB5BE000008BF0000B0B9000070B50E4B05001B78FF
:207740000C00023B984205DB00220B4B110001201B689847032C05D90022074B1100012067
:207760001B689847054BAD001B68A400EB58E05870BDC046B5BE000008BF0000B0B9000032
:20778000F7B51C4F830001933B6882009B58822204009200914229D317491A000126503277
:2077A0005333118020001E7002F07AFA0622230201001A431148042329F0D6FE3B68A20041
:2077C0009B58310050331B88050003802000FFF767FF00230100B04203D12000FFF7ACFFB0
:2077E000438828006B8029F0E3FEF7BD1729D4D21721D2E7B0B9000007020000020C0000A6
:2078000070B50E4B05001B780C00023B1600984205DB00220A4B110001201B689847032CFF
:2078200005D90022064B110001201B689847054BAD001B68A400EB58E65070BDB5BE000026
:2078400008BF0000B0B9000070B5154B04001B780D00023B984205DB0022124B1100012027
:207860001B689847032D05D900220E4B110001201B68984700200C4BA2001B68AD00D35815
:20788000ED5885420AD0280029F0CBFE2102062402002143280029F0ACFE012070BDC04606
:2078A000B5BE000008BF0000B0B9000070B5114B05001B780C00023B984205DB00220E4B8E
:2078C000110001201B689847032C05D900220A4B110001201B6898470020084BAD001B6859
:2078E000A400EB58E358834202D0180029F099FE70BDC046B5BE000008BF0000B0B9000031
:2079000070B5062400020443200016000D002AF02DFA002E05D02843C1B220002AF0B8F97F
:2079200070BDA843F8E7000070B500210600542029F052FF041E05D11D4B020001001B6840
:2079400001209847002520006560A560E56010302AF026FE200018302AF022FE2000203043
